:020000040800F2
:1000000018140020C5010008CD010008CF01000828
:10001000D1010008D3010008D5010008000000004C
:10002000000000000000000000000000D7010008F0
:10003000D901000800000000DB01000839020008B7
:10004000DF010008DF010008DF010008DF01000810
:10005000DF010008DF010008DF010008DF01000800
:10006000DF010008DF010008DF010008DF010008F0
:10007000DF010008DF010008DF010008DF010008E0
:10008000DF010008DF010008DF010008DF010008D0
:10009000DF010008DF010008DF010008DF010008C0
:1000A000DF010008DF010008DF010008DF010008B0
:1000B000DF010008DF010008DF010008DF010008A0
:1000C000DF010008DF010008DF010008DF01000890
:1000D000DF010008DF010008DF010008DF01000880
:1000E000DF010008DF010008DF010008DF01000870
:1000F000DF010008DF010008DF010008DF01000860
:10010000DF010008DF010008DF010008DF0100084F
:10011000DF010008DF010008DF010008DF0100083F
:10012000DF010008DF010008DF010008DF0100082F
:10013000DF010008DF010008DF010008DF0100081F
:10014000DF010008DF010008DF010008DF0100080F
:10015000DF010008DF010008DF010008DF010008FF
:10016000DF010008DF010008DF010008DF010008EF
:10017000DF010008DF010008DF01000800000000C7
:10018000DF010008DF010008DF010008DF010008CF
:10019000DF010008DF010008DF01000800000000A7
:1001A000DF010008DF010008DF010008DFF810D0E0
:1001B00000F030F80048004735070008AFF3008032
:1001C000181400200648804706480047FEE7FEE76F
:1001D000FEE7FEE7FEE7FEE7FEE7FEE7FEE7FEE7F7
:1001E00041020008AD01000830B50B460146002071
:1001F0002022012409E021FA02F59D4205D303FAE9
:1002000002F5491B04FA02F52844151EA2F1010269
:10021000F1DC30BD064C074D06E0E06840F001031C
:1002200094E8070098471034AC42F6D3FFF7C2FFBA
:10023000740900089409000800B500F06BFB00BDCC
:1002400008B53048006840F470002E4908602E4818
:10025000006840F001002C49086000BF2A4800688F
:1002600000F002000028F9D000BF274808300068DD
:1002700040F080002449083108600020009002E02E
:100280000098401C009000985028F9D31E48083070
:10029000006840F090001C49083108600020009080
:1002A00002E00098401C009000985028F9D300BF4D
:1002B00015480830006820F0030013490831086031
:1002C00011480068114908400F4908600846006855
:1002D00020F48020086000200B490831086000BF2E
:1002E00009480830006800200028F9D1084806496C
:1002F000091D0860002004490C31086000F006FB6D
:1003000008BD000088ED00E000380240FFFFF6FE67
:100310001030002410B54FF48061074800F056FA01
:10032000002405E04FF48061034800F05FFA641C8C
:10033000B4F5B46FF6D310BD0008024010B540F616
:10034000054000F031FA40F6024000F02DFA4FF47B
:100350008063002201210B4800F0A4F91023002241
:100360000121094800F09EF91023022200210648CD
:1003700000F0BFF94FF4806302220021014800F031
:10038000B8F910BD00080240001402400FB4054B3C
:1003900010B503A9044A029800F018F810BC5DF8E3
:1003A00014FB0000B90500081000002002E008C896
:1003B000121F08C1002AFAD170477047002001E0DF
:1003C00001C1121F002AFBD1704700002DE9FF4F29
:1003D00089B09B460446002506E025280BD05A46E6
:1003E0000B999047641C6D1C20780028F5D10DB046
:1003F0002846BDE8F08F0027B8460122474900E0B3
:10040000074314F8013F203B02FA03F00842F7D1FA
:1004100020782E2819D114F8010F47F004072A2854
:100420000ED06FF02F022078A0F1300109290CD8EE
:1004300008EB880102EB410100EB0108641CF2E7C4
:100440000A98641C50F8048B0A9020780028CED0BB
:10045000642808D0692806D075281ED05A460B9902
:1004600090476D1C58E00A994FF00A0901C90A919A
:10047000002802DA40422D2102E0390504D52B2163
:100480008DF82010012103E0F90704D02021F7E7BF
:100490008A4608AE0DE00021FAE70A994FF00A09F2
:1004A00001C90A91F7E74946FFF79EFE303106F889
:1004B000011D0028F7D1ADEB060000F120097807F7
:1004C00001D44FF00108C84502DDA8EB090000E0A7
:1004D00000208046002706E008A85A46C05D0B9918
:1004E00090476D1C7F1C5745F6DB04E030205A46D0
:1004F0000B9990476D1CB8F10001A8F10108F5DCDB
:1005000005E016F8010B5A460B9990476D1CB9F19E
:100510000001A9F10109F4DC641C65E70928010068
:1005200070B506461048007808B900F011FA0024AA
:10053000002500F06DF80546AC19AC4200D170BD45
:10054000AC4205D900BF00F063F8A042FBD309E03C
:1005500000BF00F05DF8A842FBD200BF00F058F8E1
:10056000A042FBD300BFEAE70C00002070B50646AE
:100570001048007808B900F0EBF90024002500F0DD
:100580006BF80546AC19AC4200D170BDAC4205D940
:1005900000BF00F061F8A042FBD309E000BF00F00B
:1005A0005BF8A842FBD200BF00F056F8A042FBD394
:1005B00000BFEAE70C00002030B504460D46E1B26A
:1005C000002000F0D7F8204630BD00002DE9F041B2
:1005D0000C48007808B900F0BBF900BF0A4804686D
:1005E0004FF0E0208569084800688442F6D107484A
:1005F000461B43F69820B6FBF0F727443846BDE883
:10060000F08100000C00002004000020E070720067
:100610002DE9F0410D48007808B900F099F900BFC4
:100620000B4804684FF0E02085690948006884425F
:10063000F6D10848471B4FF4FA60784340F6B831CA
:10064000B0FBF1F63019BDE8F08100000C0000208D
:1006500000000020E07072002DE9F0410C480078A5
:1006600008B900F075F900BF0A4804684FF0E020AF
:100670008569084800688442F6D10748471BC820AE
:10068000784340F6B831B0FBF1F63019BDE8F0819F
:100690000C00002008000020E070720081627047AA
:1006A00081617047F0B504460D4616462168E26840
:1006B000002019E0012787401F409FB14FEA400CFE
:1006C000032707FA0CF7B943470005FA07F7394340
:1006D0004FEA400C032707FA0CF7BA43470006FA23
:1006E00007F73A43471CB8B21028E3D32160E26011
:1006F000F0BDF0B50C461546012C03D146681E43EB
:10070000466002E046689E434660826800210DE034
:1007100001268E401E403EB14F000326BE40B2432C
:100720004E0005FA06F632434E1CB1B21029EFD343
:100730008260F0BDFFF702FE4FF48061084800F0D0
:1007400045F81021074800F041F808E0FFF73EFFA8
:100750000446214604A0FFF719FEFFF7DBFDF5E78D
:10076000000802400014024074696D653D25640A6A
:100770000000000010B500B90A484FF4805212582A
:10078000B2F5805F03D300234FF4805213504FF42F
:10079000805214581258521C4FF480531A5001556D
:1007A00010BD000014000020074A02EB9011D1F8A0
:1007B000001800F01F0301229A401143024B03EB83
:1007C0009012C2F8001870470030024070B505461C
:1007D0000E4631462846FFF761FF002403E03C2027
:1007E000FFF7C4FE641CC82CF9DB70BD70B504466D
:1007F0000D4629462046FFF753FF0420FFF790FEE1
:1008000029462046FFF74AFF0820FFF789FE70BD02
:10081000002000213A4A126842F00102384B1A6067
:1008200000BF401C364A126802F0020111B9B0F54F
:10083000A06FF6D1324A126802F002020AB900BF74
:10084000FEE72F4A4032126842F080522C4B403370
:100850001A602C4A126842F440422A4B1A60284A15
:1008600008321268264B08331A601A46126842F49E
:1008700000421A601A46126842F4A0521A60224AD4
:100880001B1F1A601A1F126842F080721B1F1A6029
:1008900000BF1B4A126802F00072002AF9D0194A00
:1008A000126842F48032174B1A6000BF154A526832
:1008B00002F48032002AF9D0124A126842F400325F
:1008C000104B1A6000BF0F4A526802F40032002A2F
:1008D000F9D00B4A0832126822F00302084B0833A1
:1008E0001A601A46126842F002021A6000BF044AF7
:1008F0000832126802F00802002AF8D0704700009F
:1009000000380240007000401078000A10B5FFF770
:100910007FFF10BD0948006809490844074908607D
:100920000848006808490844064908600748006804
:1009300000F5FA70054908607047000000000020CB
:10094000404B4C000800002020A1070004000020BC
:1009500072B601200549087005484FF0E021486152
:1009600088610320086162B6704700000C00002017
:10097000E0707200940900080000002014000000DC
:10098000AC030008A80900081400002004140000AB
:10099000BC03000800000000000000000000000090
:0809A00000000000000000004F
:04000005080001AD41
:00000001FF
