:020000040800F2
:1000000018140020C5010008CD010008CF01000828
:10001000D1010008D3010008D5010008000000004C
:10002000000000000000000000000000D7010008F0
:10003000D901000800000000DB01000827070008C4
:10004000DF010008DF010008DF010008DF01000810
:10005000DF010008DF010008DF010008DF01000800
:10006000DF010008DF010008DF010008DF010008F0
:10007000DF010008DF010008DF010008DF010008E0
:10008000DF010008DF010008DF010008DF010008D0
:10009000DF010008DF010008DF010008DF010008C0
:1000A000DF010008DF010008DF010008DF010008B0
:1000B000DF010008DF010008DF010008DF010008A0
:1000C000DF010008DF010008DF010008DF01000890
:1000D000DF010008DF010008DF010008DF01000880
:1000E000DF010008DF010008DF010008DF01000870
:1000F000DF010008DF010008DF010008DF01000860
:10010000DF010008DF010008DF010008DF0100084F
:10011000DF010008DF010008DF010008DF0100083F
:10012000DF010008DF010008DF010008DF0100082F
:10013000DF010008DF010008DF010008DF0100081F
:10014000DF010008DF010008DF010008DF0100080F
:10015000DF010008DF010008DF010008DF010008FF
:10016000DF010008DF010008DF010008DF010008EF
:10017000DF010008DF010008DF01000800000000C7
:10018000DF010008DF010008DF010008DF010008CF
:10019000DF010008DF010008DF01000800000000A7
:1001A000DF010008DF010008DF010008DFF810D0E0
:1001B00000F076FA004800476D130008AFF30080A6
:1001C000181400200648804706480047FEE7FEE76F
:1001D000FEE7FEE7FEE7FEE7FEE7FEE7FEE7FEE7F7
:1001E00031070008AD0100082DE9FE4F81EA030444
:1001F00004F0004421F0004100944FF0000B23F084
:10020000004350EA01045ED052EA03045BD0C3F31A
:100210000A54C1F30A552C44A4F2F3340194A0FB10
:100220000254C1F3130141F48011C3F3130343F4E7
:10023000801301FB024400FB034E840A970A44EA40
:10024000815447EA8357A4FB076802958D0A05FB92
:1002500007854FEA932C04FB0C542705029D4FEAB7
:10026000065847EA1637B5EB08056EEB070C870E04
:10027000920E47EA811742EA8312A7FB0201B6EB0E
:100280000B0164EB00042B0D43EA0C335E1844EBC6
:100290001C50DA465146E7FB0201C5F313044FEA4E
:1002A0000B3343EA14534FEA0432019C43EA06033A
:1002B000A4F10C040294009CCDE900B400F0CBF84A
:1002C00003B0BDE8F08F00200146F9E72DE9F04DBD
:1002D00081EA030404F0004B21F0004514464FF07E
:1002E000000A23F0004150EA050220D054EA01023E
:1002F0001DD0C5F30A570246C5F31303C1F313001B
:10030000C1F30A5640F4801543F48013A7EB0608A6
:10031000101BD64608F2FD3873EB050002D308F136
:10032000010801E092185B41B8F1000F03DA0020E8
:100330000146BDE8F08D00204FF48011064684464A
:100340000EE0171B73EB050705D3121B63EB0503C8
:1003500006434CEA010C49084FEA300092185B4111
:1003600050EA0107EDD152EA030012D082EA0400FC
:1003700083EA0501084305D0101BAB4106D20122D8
:10038000002306E000224FF0004302E06FF001027C
:1003900053101AEB06004CEB085110EB0A0041EB2E
:1003A0000B01BDE8F04D00F047B830B50B460146F3
:1003B00000202022012409E021FA02F59D4205D304
:1003C00003FA02F5491B04FA02F52844151EA2F1AE
:1003D0000102F1DC30BD2DE9F05F054600209246B8
:1003E0009B4688460646814640241BE028464146F7
:1003F0004746224600F075F953465A46C01A9141C5
:1004000010D311461846224600F05CF92D1A67EB0E
:1004100001084F4622460120002100F053F917EB56
:1004200000094E41201EA4F10104DFDC484631469C
:100430002A464346BDE8F09F10B5141E73F1000430
:1004400008DA401C41F1000192185B411A4301D1C6
:1004500020F0010010BD2DE9F04D92469B4611B1F0
:10046000B1FA81F202E0B0FA80F22032904600F058
:1004700029F904460F4640EA0A0041EA0B015346B7
:100480005A46084313D0114653EA010019D0C8F167
:100490004002504600F025F905460E4650465946A2
:1004A000424600F00FF9084305D0012004E0204641
:1004B0003946BDE8F08D0020054346EAE0762C433E
:1004C00037430A986305E40AA0EB08000022FD0AFE
:1004D00044EA47540A3002D500200146E9E7010505
:1004E00010196941DDE9084500196941BDE8F04D81
:1004F000A2E72DE9FE4F804681EA0300C00F0C46BB
:10050000009021F0004123F00045B8EB0200A94122
:1005100005D24046214690461C460B46024623F033
:100520000040104347D0270DC7F30A00C3F30A5118
:100530000290401A019040286BDAC3F3130040F494
:10054000801B0098924620B10023D2EB030A63EB94
:100550000B0B01985946C0F14002504600F0B2F82A
:1005600006460D4650465946019A00F0CAF810EB6F
:1005700008006141002487EA115284EAE7731A43B4
:1005800040D0009A62B3019A012A4FEA075215DC63
:10059000001B61EB02014FF0004202EA0752CDE975
:1005A0000042001C41F5801132462B46FFF753FFF5
:1005B00003B0BDE8F08F40462146F9E7001B61EB30
:1005C0000201001C41F5801300185B412018A2F5C0
:1005D000001747EB030140EAD570B6196D4111E0F1
:1005E0006D084FEA360645EAC0754FEA0752001B10
:1005F00061EB0201001C41F5801149084FEA30000F
:100600000019514132462B4603B0BDE8F04FFFF7C9
:1006100013BF0098012240000023D0EB020263EBDD
:10062000E073009821464FEAE074B8EB000061EBFC
:100630000401E9E783F000435BE781F0004158E7FC
:10064000C1F30A52C1F3130140F2FF3341F48011A8
:100650009A4202DA00200146704740F233439A4240
:10066000A2F2334202DC524200F03BB800F02AB85A
:1006700030B5041E71F1000404DB4FF00044404229
:1006800064EB0101141E73F1000405DB1C464FF0FE
:100690000043524263EB0403994208BF904230BDCD
:1006A000064C074D06E0E06840F0010394E80700BF
:1006B00098471034AC42F6D3FFF77CFDF8150008DC
:1006C00018160008202A04DB203A00FA02F1002064
:1006D00070479140C2F1200320FA03F31943904080
:1006E0007047202A04DB203A21FA02F000217047EB
:1006F00021FA02F3D040C2F120029140084319468A
:100700007047202A06DBCB17203A41FA02F043EA71
:10071000E07306E041FA02F3D040C2F120029140BA
:1007200008431946704700B500F02AFF00BD0000DD
:1007300008B53048006840F470002E4908602E4823
:10074000006840F001002C49086000BF2A4800689A
:1007500000F002000028F9D000BF274808300068E8
:1007600040F080002449083108600020009002E039
:100770000098401C009000985028F9D31E4808307B
:10078000006840F090001C4908310860002000908B
:1007900002E00098401C009000985028F9D300BF58
:1007A00015480830006820F003001349083108603C
:1007B00011480068114908400F4908600846006860
:1007C00020F48020086000200B490831086000BF39
:1007D00009480830006800200028F9D10848064977
:1007E000091D0860002004490C31086000F0C4FEB7
:1007F00008BD000088ED00E000380240FFFFF6FE73
:100800001030002470B500240DE04FF480601749CB
:10081000086000F0E5FE4FF4806014491031086074
:1008200000F0E4FE641CB4F5B46FEED34FF48061C5
:100830000E48183800F0E6FDFF2500BF002407E051
:100840002A464FF480610948183800F0E7FD641C1F
:100850001E2CF5D34FF480610448183800F0D2FD07
:100860004FF47A7000F09EFC70BD00001808024042
:1008700010B540F6054000F0B3FD40F6024000F030
:10088000AFFD4FF4806300220121114800F026FDE6
:100890001023002201210F4800F020FD1023022226
:1008A00000210C4800F041FD4FF48063022200213A
:1008B000074800F03AFD40F6024000F091FD4FF489
:1008C000006300221146024800F008FD10BD000040
:1008D00000080240001402400FB4054B10B503A9F4
:1008E000044A029800F0DAF810BC5DF814FB00002E
:1008F0003D1200081000002002E008C8121F08C1C5
:10090000002AFAD170477047002001E001C1121F90
:10091000002AFBD1704700002DE9FF5F82B0002163
:10092000DDE90430020DDDF840B0034318D044F691
:100930001050A2F2FF3242431514119801281FD023
:10094000A5EB0B00401C5FEA000A4FF000064E4F7B
:10095000DFF83891B046504615D5CAF1000413E0CF
:10096000119801244AA3012801D16FEA0B010298D2
:10097000119AC0E90031C0E9024206B0BDE8F09F1B
:10098000CBF10000DFE704460021404A491842EB62
:100990000450CDE9001012E0E00707D032463B4694
:1009A00040464946FFF720FC8046894632463B4692
:1009B00010461946FFF718FC06460F466410002C37
:1009C000EAD1DDE90401DDE90023BAF1000F06DA1E
:1009D000FFF70AFC42464B46FFF706FC05E0FFF72F
:1009E00075FC42464B46FFF771FC04460E4600225A
:1009F000284BFFF73DFE03D84FF0FF30014607E0DC
:100A00000022254B20463146FFF773FDFFF718FE05
:100A1000102409E0002C0ADB0A220023FFF7DBFC8C
:100A2000039B30321A55641E50EA0102F2D1641C55
:100A3000039AC4F111031444119A012A03D001222C
:100A400008430DD10AE0084304D000204FF0110BF9
:100A5000119072E7A3EB0B056D1E0DE05B4504DD05
:100A60004FF0000205F1010504E003DA4FF0000247
:100A7000A5F10105002AECD002981199C0E90231D4
:100A8000C0E9004579E70000000014400000F03F95
:100A9000300000000000F0430000E03F2DE9FF4F70
:100AA00095B09A46884606460025EEE1252877D17E
:100AB00000242746F94A0121039400E0044316F874
:100AC000013F203B01FA03F01042F7D130782A2889
:100AD00011D06FF02F033078A0F13002092A16D818
:100AE000039A44F0020402EB820203EB4202104438
:100AF000761C0390EFE758F8042B0392002A03DAE0
:100B0000504244F40054039044F00204761C3078C0
:100B10002E2816D116F8010F44F004042A280DD00F
:100B20006FF02F023078A0F13003092B09D807EBC2
:100B3000870302EB4303C718761CF3E758F8047BDE
:100B4000761C30786C280FD006DC4C2817D068282B
:100B50000DD06A2814D104E0742810D07A280FD15F
:100B60000DE044F400140AE044F4801401E044F47D
:100B700040147278824202D104F58014761C761CEF
:100B8000307866280BD013DC582877D009DC002891
:100B900075D04528F6D04628F4D047281AD193E1DD
:100BA00018E0632835D0642879D0652812D18BE10C
:100BB000702873D008DC6728F1D069286FD06E28C0
:100BC0000DD06F2806D1ACE073282CD0752874D0D6
:100BD000782853D05246179990476D1C54E1C4F3BE
:100BE0000250022809D003280DD0D8F8001004289C
:100BF0000DD00D6008F1040846E1D8F80010EA179E
:100C0000C1E90052F6E7D8F800100D80F2E70D7048
:100C1000F0E718F8041B8DF8001000208DF8010093
:100C2000EB46012003E058F804BB4FF0FF306107AA
:100C30004FF0000102D40DE009F101018946B942EB
:100C40000FDA8145F8DB1BF809100029F4D108E020
:100C500009F1010189468142FADB1BF809100029DC
:100C6000F6D103985346A0EB090721463846179A58
:100C700000F080FA284400EB090507E044E008E1B1
:100C80000DE01BF8010B524617999047B9F1010985
:100C9000F7D2534621463846179AF2E039E00A2146
:100CA000C4F302524FF0000B0091022A06D058F80C
:100CB000040BC117032A09D00AE023E008F107005A
:100CC00020F00702F2E80201904605E000B2C117E9
:100CD000042A01D140B2C117002906DA0A460021D0
:100CE000404261EB02012D2202E0220504D52B22B5
:100CF0008DF80420012203E0E20701D02022F7E76B
:100D0000914657E00A2100E010214FF0000B0091BE
:100D10000BE010214FF0000B44F004040827009171
:100D200003E008204FF0000B0090C4F30252022AA7
:100D300005D058F8040B0021032A08D008E008F178
:100D4000070020F00702F2E80201904603E080B2BB
:100D5000042A00D1C0B24FF0000922072AD5327808
:100D6000702A07D0DDF800C08CF0100C5CEA0B0C88
:100D700005D00EE040228DF80420012208E050EA60
:100D8000010306D030238DF804308DF805200222AF
:100D90009146009B83F0080353EA0B030AD150EA03
:100DA000010201D1620705D530228DF804204FF0F1
:100DB00001097F1E3278582A04D039A20C920CAA5D
:100DC00002920BE03BA2F9E75B46009AFFF703FBB8
:100DD0000C9B9B5C029A521E0292137050EA010215
:100DE000F2D1029804A9081A00F1200B600702D57D
:100DF00024F4803400E001275F4502DDA7EB0B00FF
:100E000000E0002000EB0B01009003984944401AD9
:100E10000390E00306D453462146179A039800F046
:100E2000A9F90544002706E001A85246C05D1799BC
:100E300090476D1C7F1C4F45F6DBE0030CD55346F5
:100E40002146179A039800F095F9054404E03020F4
:100E50005246179990476D1C0099481E0090002932
:100E6000F5DC08E00298029952460078491C02918C
:100E7000179990476D1CBBF10001ABF1010BF1DC40
:100E80005BE100F065F90544761C307800287FF4BA
:100E90000DAE19B02846BDE8F08F0000092801000A
:100EA00030313233343536373839616263646566E0
:100EB00000000000303132333435363738394142A2
:100EC0004344454600000000600700D4062708F1AF
:100ED000070020F00700F0E80223804603F0004CF2
:100EE0005FEA0C0001D097A009E0200501D596A08B
:100EF00005E0E00701D095A001E0AFF24C001390AF
:100F0000307823F0004365280CD006DC452809D052
:100F100046281DD047287FD13BE0662818D0672897
:100F20007AD136E00021112F01DB112000E0781C7E
:100F3000CDE9000104A90CA8FFF7EEFCDDE90D01E5
:100F40000C9A4FF0000B07F10109109200914EE04E
:100F50004FF000400097CDE9011004A90CA8FFF75D
:100F6000DBFCDDE90D020C9B0F994FF0000B914665
:100F70001093009211B9791C00EB0109B7EB09003D
:100F800003D4C0F1FF3B07F10109A9EB0700019071
:100F900042E0012F00DA01270021112F01DD11208D
:100FA00000E03846CDE9000104A90CA8FFF7B4FC25
:100FB000DDE90D010C9A00914FF0000BB94610923B
:100FC00021070FD4009A4A4503DA914601E0A9F1BE
:100FD0000109B9F1010F05DD109AA9F10101515C78
:100FE0003029F4D0B84202DA10F1040F03DA0121FB
:100FF000CDE9011010E0002803DC8344A9EB0001D7
:1010000002E0411C494500DD8946A0EB0B00401C75
:1010100001904FF000400290200705D40198484508
:1010200002DB4FF0FF30019000208DF84B0002985A
:101030000DF14B07B0F1004F25D002200C902B2072
:101040000D90029800280CDA404202902D200D905D
:1010500007E00A210298FFF7A8F93031029007F85B
:10106000011D0C99481E0C900029F2DC0298002802
:10107000EFD1791E0D980870307800F0200040F014
:10108000450007F8020D11A8C01BC01D029013985F
:10109000007800B1012000EB0901019801EBE0713B
:1010A000029801440398401A401E0390E00306D4BE
:1010B00053462146179A039800F05CF805441398AC
:1010C000007818B15246179990476D1CE00323D55C
:1010D00053462146179A039800F04CF805441BE04C
:1010E000BBF1000F07DB0098584504DD10981799F5
:1010F00010F80B0001E017993020524690470198F4
:101100000BF1010B401E05F10105019004D12E20C9
:101110005246179990476D1CB9F10001A9F10109D8
:10112000DEDC05E017F8010B5246179990476D1C5D
:101130000299481E02900029F4DC53462146179A72
:1011400003989EE62D0000002B0000002000000008
:101150002DE9F041044600251E461746880404D4B4
:1011600005E039462020B0476D1C641EF9D528469D
:10117000BDE8F0812DE9F041044600251E46904669
:10118000C80301D5302700E02027880404D505E0F6
:1011900041463846B0476D1C641EF9D52846BDE867
:1011A000F081000070B506461048007808B900F0DC
:1011B00005FA0024002500F04BF80546AC19AC42B6
:1011C00000D170BDAC4205D900BF00F041F8A0428B
:1011D000FBD309E000BF00F03BF8A842FBD200BF00
:1011E00000F036F8A042FBD300BFEAE70C00002075
:1011F00070B506461048007808B900F0DFF9002401
:10120000002500F047F80546AC19AC4200D170BD8E
:10121000AC4205D900BF00F03DF8A042FBD309E085
:1012200000BF00F037F8A842FBD200BF00F032F850
:10123000A042FBD300BFEAE70C00002030B5044613
:101240000D46E1B2002000F0B1F8204630BD0000AC
:101250002DE9F0410C48007808B900F0AFF900BF63
:101260000A4804684FF0E020856908480068844215
:10127000F6D10748461B43F69820B6FBF0F7274403
:101280003846BDE8F08100000C000020040000207A
:10129000E07072002DE9F0410C48007808B900F0C8
:1012A0008DF900BF0A4804684FF0E02085690848BE
:1012B00000688442F6D10748471BC820784340F6AF
:1012C000B831B0FBF1F63019BDE8F0810C00002018
:1012D00008000020E070720081627047F0B504469B
:1012E0000D4616462168E268002019E00127874074
:1012F0001F409FB14FEA400C032707FA0CF7B94390
:10130000470005FA07F739434FEA400C032707FA6D
:101310000CF7BA43470006FA07F73A43471CB8B23E
:101320001028E3D32160E260F0BDF0B50C4615460D
:10133000012C03D146681E43466002E046689E4386
:101340004660826800210DE001268E401E403EB1BD
:101350004F000326BE40B2434E0005FA06F6324364
:101360004E1CB1B21029EFD38260F0BDFFF780FAB6
:101370004FF48061084800F045F81021074800F05C
:1013800041F808E0FFF764FF0446214604A0FFF798
:10139000A3FAFFF737FAF5E700080240001402400D
:1013A00074696D653D25640A0000000010B500B940
:1013B0000A484FF480521258B2F5805F03D30023DD
:1013C0004FF4805213504FF4805214581258521C4C
:1013D0004FF480531A50015510BD00001400002036
:1013E000074A02EB9011D1F8001800F01F03012208
:1013F0009A401143024B03EB9012C2F80018704759
:101400000030024070B504460D4629462046FFF7DD
:1014100063FF4FF4FA70FFF7EBFE70BD2DE9F0416A
:1014200006460F4614460520FFF7E2FE00251FE0A2
:1014300004F4000068B14FF480600F49086000F0C8
:10144000D5F84FF480600C491031086000F0C8F8FE
:101450000CE04FF480600849086000F0C1F84FF4D8
:10146000806005491031086000F0C0F864006D1C10
:10147000182DDDD3BDE8F0811808024000200021BE
:101480003A4A126842F00102384B1A6000BF401C11
:10149000364A126802F0020111B9B0F5A06FF6D118
:1014A000324A126802F002020AB900BFFEE72F4A70
:1014B0004032126842F080522C4B40331A602C4A62
:1014C000126842F440422A4B1A60284A08321268D5
:1014D000264B08331A601A46126842F400421A601A
:1014E0001A46126842F4A0521A60224A1B1F1A6060
:1014F0001A1F126842F080721B1F1A6000BF1B4A3D
:10150000126802F00072002AF9D0194A126842F4F7
:101510008032174B1A6000BF154A526802F48032BD
:10152000002AF9D0124A126842F40032104B1A60B5
:1015300000BF0F4A526802F40032002AF9D00B4A69
:101540000832126822F00302084B08331A601A4668
:10155000126842F002021A6000BF044A08321268A0
:1015600002F00802002AF8D070470000003802405C
:10157000007000401078000A10B5FFF77FFF10BD23
:101580000948006809490844074908600848006894
:1015900008490844064908600748006800F5FA70E1
:1015A000054908607047000000000020404B4C00D7
:1015B0000800002020A107000400002072B60120CE
:1015C0000549087005484FF0E02148618861032013
:1015D000086162B6704700000C000020E0707200E5
:1015E000062000E0401E0028FCD170471E2000E0CD
:1015F000401E0028FCD1704718160008000000208B
:1016000014000000F80800082C1600081400002040
:101610000414000008090008000000000000000099
:0C162000000000000000000000000000BE
:04000005080001AD41
:00000001FF
