:020000040800F2
:1000000098210020C5010008CD010008CF0100089B
:10001000D1010008D3010008D5010008000000004C
:10002000000000000000000000000000D7010008F0
:10003000D901000800000000DB010008ED080008FD
:10004000DF010008DF010008DF010008DF01000810
:10005000DF010008DF010008DF010008DF01000800
:10006000DF010008DF010008DF010008DF010008F0
:10007000DF010008DF010008DF010008DF010008E0
:10008000DF010008DF010008DF010008DF010008D0
:10009000DF010008DF010008DF010008DF010008C0
:1000A000DF010008DF010008DF010008DF010008B0
:1000B000DF010008DF010008C9090008DF010008AE
:1000C000DF010008DF010008DF010008DF01000890
:1000D000DF010008DF010008DF010008DF01000880
:1000E000DF010008DF010008DF010008DF01000870
:1000F000DF010008DF010008DF010008DF01000860
:10010000DF010008DF010008DF01000839080008EE
:10011000DF010008DF010008DF010008DF0100083F
:10012000DF010008DF010008DF010008DF0100082F
:10013000DF010008DF010008DF010008DF0100081F
:10014000DF010008DF010008DF010008DF0100080F
:10015000DF010008DF010008DF010008DF010008FF
:10016000DF010008DF010008DF010008DF010008EF
:10017000DF010008DF010008DF01000800000000C7
:10018000DF010008DF010008DF010008DF010008CF
:10019000DF010008DF010008DF01000800000000A7
:1001A000DF010008DF010008DF010008DFF810D0E0
:1001B00000F020FB0048004795250008AFF30080C1
:1001C000982100200648804706480047FEE7FEE7E2
:1001D000FEE7FEE7FEE7FEE7FEE7FEE7FEE7FEE7F7
:1001E000F5080008AD0100082DE9FE4F804681EAC0
:1001F0000300C00F0C46009021F0004123F00045A1
:10020000B8EB0200A94105D24046214690461C4663
:100210000B46024623F00040104347D0270DC7F39A
:100220000A00C3F30A510290401A019040286BDA89
:10023000C3F3130040F4801B0098924620B10023C2
:10024000D2EB030A63EB0B0B01985946C0F1400255
:10025000504600F0D6F906460D4650465946019ADA
:1002600000F0DEF910EB08006141002487EA11522A
:1002700084EAE7731A4340D0009A62B3019A012AD4
:100280004FEA075215DC001B61EB02014FF0004200
:1002900002EA0752CDE90042001C41F580113246C6
:1002A0002B4600F0DEF903B0BDE8F08F4046214652
:1002B000F9E7001B61EB0201001C41F580130018F7
:1002C0005B412018A2F5001747EB030140EAD57007
:1002D000B6196D4111E06D084FEA360645EAC07562
:1002E0004FEA0752001B61EB0201001C41F580112F
:1002F00049084FEA30000019514132462B4603B0FD
:10030000BDE8F04F00F09EB90098012240000023A4
:10031000D0EB020263EBE073009821464FEAE074F1
:10032000B8EB000061EB0401E9E783F000435BE711
:1003300081F0004158E72DE9FE4F81EA030404F003
:10034000004421F0004100944FF0000B23F00043E3
:1003500050EA01045ED052EA03045BD0C3F30A54AE
:10036000C1F30A552C44A4F2F3340194A0FB0254C7
:10037000C1F3130141F48011C3F3130343F4801359
:1003800001FB024400FB034E840A970A44EA8154AD
:1003900047EA8357A4FB076802958D0A05FB07858A
:1003A0004FEA932C04FB0C542705029D4FEA065894
:1003B00047EA1637B5EB08056EEB070C870E920E71
:1003C00047EA811742EA8312A7FB0201B6EB0B0151
:1003D00064EB00042B0D43EA0C335E1844EB1C5015
:1003E000DA465146E7FB0201C5F313044FEA0B332B
:1003F00043EA14534FEA0432019C43EA0603A4F192
:100400000C040294009CCDE900B400F02AF903B07A
:10041000BDE8F08F00200146F9E72DE9F04D81EAB3
:10042000030404F0004B21F0004514464FF0000A8D
:1004300023F0004150EA050220D054EA01021DD009
:10044000C5F30A570246C5F31303C1F31300C1F302
:100450000A5640F4801543F48013A7EB0608101BDE
:10046000D64608F2FD3873EB050002D308F1010807
:1004700001E092185B41B8F1000F03DA0020014659
:10048000BDE8F08D00204FF48011064684460EE052
:10049000171B73EB050705D3121B63EB050306431C
:1004A0004CEA010C49084FEA300092185B4150EACF
:1004B0000107EDD152EA030012D082EA040083EA78
:1004C0000501084305D0101BAB4106D201220023D1
:1004D00006E000224FF0004302E06FF001025310EB
:1004E0001AEB06004CEB085110EB0A0041EB0B0134
:1004F000BDE8F04D00F0A6B80EB540F233410291D0
:100500000021CDE900110A460B4600F0AAF803B01D
:1005100000BD000030B5041E71F1000404DB4FF093
:100520000044404264EB0101141E73F1000405DB3A
:100530001C464FF00043524263EB04038B4208BF5A
:10054000824230BD30B5041E71F1000404DB4FF06F
:100550000044404264EB0101141E73F1000405DB0A
:100560001C464FF00043524263EB0403994208BF1C
:10057000904230BD30B50B460146002020220124B8
:1005800009E021FA02F59D4205D303FA02F5491B61
:1005900004FA02F52844151EA2F10102F1DC30BD77
:1005A0002DE9F05F0546002092469B4688460646A8
:1005B000814640241BE0284641464746224600F03B
:1005C0002BF953465A46C01A914110D3114618468A
:1005D000224600F016F82D1A67EB01084F46224616
:1005E0000120002100F00DF817EB00094E41201EFC
:1005F000A4F10104DFDC484631462A464346BDE803
:10060000F09F202A04DB203A00FA02F10020704714
:100610009140C2F1200320FA03F319439040704740
:10062000202A06DBCB17203A41FA02F043EAE073B6
:1006300006E041FA02F3D040C2F1200291400843A3
:100640001946704710B5141E73F1000408DA401CF7
:1006500041F1000192185B411A4301D120F00100E1
:1006600010BD2DE9F04D92469B4611B1B1FA81F2D1
:1006700002E0B0FA80F220329046FFF7C2FF044653
:100680000F4640EA0A0041EA0B0153465A46084326
:1006900013D0114653EA010019D0C8F14002504668
:1006A00000F0BAF805460E46504659464246FFF756
:1006B000A8FF084305D0012004E020463946BDE8E4
:1006C000F08D0020054346EAE0762C4337430A9834
:1006D0006305E40AA0EB08000022FD0A44EA47543F
:1006E0000A3002D500200146E9E7010510196941E9
:1006F000DDE9084500196941BDE8F04DA2E72DE9A3
:10070000F04D00231A461B1A8A4103DB00200146E4
:10071000BDE8F08DC1F30A52C1F3130141F4801515
:100720004FF0000BD10702D100186D41521E002777
:10073000044640F2FF11384601EB620A3E4680460D
:10074000024600204FF4801100F066F8C219714192
:10075000BB1846EB0100B4EB030C75EB000C04D3A3
:10076000E41A65EB000517460E46241908F101004E
:100770006D4180463428E3DDF91946EB0600091B7C
:10078000A84103D24FF0FF32134601E00022134686
:100790001BEB070046EB0A51BDE8F04DFFF752BFD7
:1007A0000EB5C10F80EAE0700844CA07002140F28C
:1007B00033438DE80E000A460B46FFF752FF03B0A5
:1007C00000BDC1F30A52C1F3130140F2FF3341F4FB
:1007D00080119A4202DA00200146704740F233430A
:1007E0009A42A2F2334202DC524200F015B8FFF7FF
:1007F00008BF0000064C074D06E0E06840F001032A
:1008000094E8070098471034AC42F6D3FFF7D2FCC7
:10081000F02F000810300008202A04DB203A21FACB
:1008200002F00021704721FA02F3D040C2F1200209
:10083000914008431946704710B50021254802F041
:10084000B1FA01281FD124480078C0B123480268BA
:100850000068401C214B1860214830F812101D48D8
:1008600002F018FA1D480068B0F5C86F0BD30020DD
:1008700019490870194908601A49087003E00021F5
:10088000144802F007FA01214FF0402002F08AFAE2
:1008900001281ED14FF0402002F0F8F90F490A68F4
:1008A0000968491C0D4B19600D4921F812001846C2
:1008B0000068B0F5C86F0CD301F058FF01214FF06C
:1008C000402002F03FFA0120074908700020034948
:1008D000086010BD003C004008000020040000201B
:1008E0009C100020090000200A00002000B502F042
:1008F00013FB00BD08B53048006840F470002E4975
:1009000008602E48006840F001002C49086000BFD4
:100910002A48006800F002000028F9D000BF2748EC
:100920000830006840F08000244908310860002049
:10093000009002E00098401C009000985028F9D3E5
:100940001E480830006840F090001C4908310860DB
:100950000020009002E00098401C00900098502871
:10096000F9D300BF15480830006820F00300134990
:100970000831086011480068114908400F490860B3
:100980000846006820F48020086000200B490831E8
:10099000086000BF09480830006800200028F9D12D
:1009A00008480649091D0860002004490C31086008
:1009B00002F0AEFA08BD000088ED00E00038024009
:1009C000FFFFF6FE1030002410B501210E4802F0A2
:1009D000D6FAC0B101210C4802F0CEFA0B480088CB
:1009E000002804DD09480088401E0849088008489E
:1009F00001880088401C064A1080B1F5967F02DB12
:100A000000201146088010BD0008004000000020B2
:100A10000200002070B505460E46032000F000F9E4
:100A2000044615B144F0030401E024F00304214618
:100A3000032000F00FF9022000F0F2F8044616B18E
:100A400044F0030401E024F003042146022000F0F6
:100A500001F970BD70B5044604F007042F2000F0C2
:100A6000DFF8054625F0070545EA04012F2000F0D0
:100A7000F1F8302000F0D4F8054625F0070545EAE6
:100A80000401302000F0E6F870BD70B504460D4654
:100A900004F03F0405F03F050CB944F040040DB9E3
:100AA00045F040052146342000F0D4F845F480712B
:100AB000352000F0CFF870BD70B504460D4604F047
:100AC000030405F00305E00040EA4511042000F0AE
:100AD000C1F870BD10B50021084600F0BBF81B211D
:100AE000012000F0B7F84FF4D871022000F0B2F8FE
:100AF0006C21032000F0AEF80021062000F0AAF8D7
:100B000010212B2000F0A6F84FF480712F2000F068
:100B1000A1F84FF48071302000F09CF802213120C0
:100B200000F098F80421312000F094F808210A2000
:100B300000F090F808210E2000F08CF810BD2DE98F
:100B4000F04105460E461746022000F069F80446BB
:100B500015B144F00C0401E024F00C0421460220FD
:100B600000F078F82C2000F05BF8044615B144F052
:100B7000330401E024F0330421462C2000F06AF80D
:100B80001EB1052000F00EF802E0002000F00AF887
:100B90001FB10720FFF75EFF02E00020FFF75AFFBA
:100BA000BDE8F08170B5044604F007042F2000F082
:100BB00037F8054625F0700545EA04112F2000F0AE
:100BC00049F8302000F02CF8054625F0700545EA7C
:100BD0000411302000F03EF870BD10B5044604F05A
:100BE0003F0421462D2000F035F844F480712E207A
:100BF00000F030F810BD70B506460D4600240EB169
:100C000044F001041DB144F0020444F014042146F0
:100C1000322000F01FF82146332000F01BF870BD91
:100C20000146024830F81100704700001A00002009
:100C300010B5044604F03F040CB944F040042146CA
:100C4000362000F007F844F48071372000F002F8F5
:100C500010BD000070B505460C4642F2107600BF8C
:100C600040F201613D4801F0DBFA0028F8D130463E
:100C700001F0B7FA394801F0FAFA304601F0B1FA5A
:100C800000BF4FF4A061354801F0CAFA0028F8D03F
:100C9000304601F0A6FA6FF0010234212F4801F02E
:100CA000CEFA304601F09DFA00BF40F201512B48C8
:100CB00001F0B6FA0028F8D0304601F092FA40F27E
:100CC0000151264801F098FA304601F08AFA00BF37
:100CD00040F20751214801F0A3FA0128F8D130462B
:100CE00001F07FFAC4F3002040EA4500C1B21B487E
:100CF00001F074FA304601F074FA00BF40F202517C
:100D0000164801F08DFA0028F8D0304601F069FA53
:100D1000E1B2124801F062FA304601F062FA00BF17
:100D200040F202510D4801F07BFA0028F8D030461D
:100D300001F057FA094801F09FFA304601F051FAE4
:100D400000BF0648006800F400700028F9D1304662
:100D500001F047FA024820F8154070BD005C0040E1
:100D60001A0000200FB4054B10B503A9044A0298DD
:100D700000F04EFC10BC5DF814FB0000F71E0008EC
:100D8000900000200000000070B5D94B00242DED2C
:100D9000020B2DED108BDDE91010984205DA20F0E2
:100DA00000429A4201D809D141B19DED100BBDEC32
:100DB000108B02B0BDE8704000F036BBB0F5801F6C
:100DC00026DA11430BD0002813DA012000F058FB7B
:100DD000BDEC108B02B0BDE8704000F031BB0220CA
:100DE00000F04EFB00F008FB51EC100B81F00041CD
:100DF0009EE06FF035049FEDC00B53EC102B9DED82
:100E0000100B51EC100BFFF796FACDE910010846D4
:100E100004EB2051C0F31304B948A1F2FF31204480
:100E200000F4801080F07F6282F04052224301EB98
:100E300020559FEDB50B119253EC102B9DED100B2F
:100E400051EC100BFFF771FA41EC180BA01CC0F32A
:100E500013009FEDAFDB9FEDB0EBB14E7E44032856
:100E60006CD296ED000B51EC180B53EC102BFFF7E6
:100E700051FB1DD1002D01BF96ED000BBDEC108B79
:100E800002B070BD2846FFF78BFC41EC180B53EC09
:100E90001D2BFFF750FA41EC190B53EC1E2B51ECB4
:100EA000180BFFF748FA53EC192BFFF79DF93FE0B9
:100EB0009FED9D0B51EC180B53EC102BFFF73BFAF9
:100EC0009FED9B1B53EC112BFFF732FA41EC190BF2
:100ED00053EC182B51EC180BFFF72DFA53EC192B90
:100EE000FFF729FA41EC190B002D04BF53EC192B25
:100EF00051EC180B1AD02846FFF752FC41EC1A0BA4
:100F000053EC1D2BFFF717FA53EC192BFFF710FAD0
:100F100053EC182BFFF709FA41EC180B53EC1E2B7E
:100F200051EC1A0BFFF707FA53EC182BFFF7FDF9FA
:100F3000BDEC108B02B041EC100B70BD9FED7E0B31
:100F400051EC180B53EC102BFFF74EF941EC100B42
:100F500051EC180B53EC102BFFF75FFA41EC190B17
:100F60002846FFF71DFC41EC1B0B53EC192B51ECF1
:100F7000190BFFF7E0F941EC1A0B714853EC1A2BEF
:100F8000261851EC1A0BFFF7D6F941EC1F0B6D48F0
:100F9000C4F1510404F5D724B0EE4F0AF0EE6F0A05
:100FA0000321784400F0A9F953EC1F2B51EC100BEE
:100FB000FFF7C1F941EC1C0B6348B0EE4F0AF0EEAD
:100FC0006F0A0421784400F098F953EC1A2B51EC85
:100FD000100BFFF7B0F9344353EC1C2BFFF704F967
:100FE00041EC1C0B002C4CDD9FED510B51EC180B10
:100FF00053EC102BFFF79FF953EC182BFFF79BF9DD
:1010000041EC1A0B55B353EC1D2B51EC1B0BFFF7A6
:1010100092F941EC1D0B53EC1C2B51EC1A0BFFF712
:10102000E3F853EC192BFFF786F953EC1D2BFFF770
:10103000DBF853EC1A2BFFF77BF953EC182BFFF777
:1010400074F941EC180B53EC1E2B51EC1B0BFFF702
:1010500072F953EC182BFFF768F969E753EC1C2B76
:1010600051EC1A0BFFF7C0F853EC192BFFF763F99B
:1010700053EC1A2BFFF75CF953EC182BFFF758F9D8
:1010800056E735B353EC1D2B51EC1B0BFFF753F90F
:1010900041EC1A0B53EC1C2B51EC180BFFF745F9E4
:1010A00053EC192BFFF747F953EC1A2BFFF73DF9D7
:1010B00053EC182BFFF739F941EC180B53EC1E2BAE
:1010C00051EC1B0BFFF737F953EC182BFFF72DF9F9
:1010D0002EE753EC1C2B51EC180BFFF726F953ECC1
:1010E000192BFFF728F953EC182BFFF721F91FE70D
:1010F0000000F07F000000000000000000005043EE
:10110000645F090000000000000000000000F03FE4
:10111000763C7935EF39EA3D0000E0FE422EE63FAD
:101120008821000000000000555555555555D53F04
:10113000000000000000E03F000000000000004050
:1011400086EBF9FF0A2000000020000000000000EC
:1011500070B5414A00252DED020B2DED048BDDE924
:101160000404944205DA24F00041914201D809D1E7
:1011700040B19DED040BBDEC048B02B0BDE87040A6
:1011800000F052B9B4F5801F26DA08430BD0002CCA
:1011900013DA012000F074F9BDEC048B02B0BDE855
:1011A000704000F04DB9022000F06AF900F024F917
:1011B00051EC100B81F0004146E09FED290B6FF0E0
:1011C000350553EC102B9DED040B51EC100BFFF784
:1011D000B2F8CDE904010C4605EB2450A0F2FF3033
:1011E000C10F40F2FF32521A62F31F540844FFF756
:1011F000D7FA05949DED040B41EC180B51EC100B44
:1012000001F0C0F99FED181B53EC112BFFF793F879
:101210009FED170B41EC190B53EC102B51EC180BF5
:10122000FFF789F853EC192BFEF7DEFF9FED120B49
:1012300041EC190B53EC102B51EC180BFFF77BF81A
:1012400053EC192BFEF7D0FFBDEC048B02B041EC40
:10125000100B70BD000000000000F07F00000000D7
:1012600000000000000050430EE526157BCBDB3F5D
:10127000362BF111F3FE593D00609F501344D33FCC
:1012800000B52DED048BB0EE409AF0EE609A83B07D
:1012900051EC190BFFF733FA41EC180B18EE100A5A
:1012A00018EE901A8DED008B002818BF012008431E
:1012B00020F00040C0F17F6000F1E040C00F14D08A
:1012C00019EE101A19EE900A8DED009B002918BF37
:1012D0000121084320F00040C0F17F6000F1E040B0
:1012E000C00F04BF012000F0CBF8B0EE480A03B0F5
:1012F000F0EE680ABDEC048B00BD70B504462DED20
:10130000028B4D1E00EBC500B0EE408AF0EE608A05
:1013100090ED000B35F0060017D053EC182B51EC74
:10132000100BFFF708F841EC100B6D1E04EBC50025
:1013300090ED001B51EC100B53EC112BFEF754FFFA
:1013400041EC100B35F00600E7D1022D36D0042D0C
:101350001CD0062D1CBFBDEC028B70BD53EC182BAE
:1013600051EC100BFEF7E7FF94ED0A1B53EC112B29
:10137000FEF73AFF53EC182BFEF7DDFF94ED081B48
:1013800053EC112BFEF730FF41EC100B53EC182BF4
:1013900051EC100BFEF7CFFF94ED061B53EC112B15
:1013A000FEF722FF53EC182BFEF7C5FF94ED040B5C
:1013B00053EC102BFEF718FF41EC100B53EC182BDD
:1013C00051EC100BFEF7B7FF94ED021B53EC112B01
:1013D000FEF70AFF53EC182BFEF7ADFF94ED001B50
:1013E00053EC112BFEF700FFBDEC028B41EC100B10
:1013F00070BD0000000000009FED070B10B553EC1E
:10140000102B9FED070B51EC100BFFF706F841EC8A
:10141000100B10BD000000000000000000000000E4
:10142000000000000000F03F10B553EC102B51EC11
:10143000100BFEF7D9FE41EC100B10BD00000000B0
:101440009FED050B10B553EC102B51EC100BFEF774
:10145000E4FF41EC100B10BD000000000000000094
:1014600002E008C8121F08C1002AFAD1704770476D
:10147000002001E001C1121F002AFBD170470000CB
:101480000149086070470000940000202DE9FF5FCB
:1014900082B00021DDE90430020DDDF840B00343E5
:1014A00018D044F61050A2F2FF324243151411989E
:1014B00001281FD0A5EB0B00401C5FEA000A4FF08B
:1014C00000064E4FDFF83891B046504615D5CAF1A8
:1014D000000413E0119801244AA3012801D16FEA06
:1014E0000B010298119AC0E90031C0E9024206B02E
:1014F000BDE8F09FCBF10000DFE704460021404A41
:10150000491842EB0450CDE9001012E0E00707D083
:1015100032463B4640464946FEF70DFF8046894627
:1015200032463B4610461946FEF705FF06460F4673
:101530006410002CEAD1DDE90401DDE90023BAF1F1
:10154000000F06DAFEF7F7FE42464B46FEF7F3FEC3
:1015500005E0FEF762FF42464B46FEF75EFF04469B
:101560000E460022284BFEF7EDFF03D84FF0FF3068
:10157000014607E00022254B20463146FEF734FEA7
:10158000FFF71FF9102409E0002C0ADB0A220023D0
:10159000FFF706F8039B30321A55641E50EA010229
:1015A000F2D1641C039AC4F111031444119A012A64
:1015B00003D0012208430DD10AE0084304D00020E3
:1015C0004FF0110B119072E7A3EB0B056D1E0DE0B0
:1015D0005B4504DD4FF0000205F1010504E003DA8C
:1015E0004FF00002A5F10105002AECD002981199F4
:1015F000C0E90231C0E9004579E70000000014406D
:101600000000F03F300000000000F0430000E03F29
:101610002DE9FF4F95B09A46884606460025EEE133
:10162000252877D100242746F94A0121039400E0B8
:10163000044316F8013F203B01FA03F01042F7D1B2
:1016400030782A2811D06FF02F033078A0F13002C3
:10165000092A16D8039A44F0020402EB820203EB33
:1016600042021044761C0390EFE758F8042B0392D3
:10167000002A03DA504244F40054039044F0020478
:10168000761C30782E2816D116F8010F44F0040489
:101690002A280DD06FF02F023078A0F13003092BEB
:1016A00009D807EB870302EB4303C718761CF3E75F
:1016B00058F8047B761C30786C280FD006DC4C2858
:1016C00017D068280DD06A2814D104E0742810D0EF
:1016D0007A280FD10DE044F400140AE044F4801499
:1016E00001E044F440147278824202D104F580147F
:1016F000761C761C307866280BD013DC582877D0FF
:1017000009DC002875D04528F6D04628F4D04728B3
:101710001AD193E118E0632835D0642879D0652880
:1017200012D18BE1702873D008DC6728F1D06928CA
:101730006FD06E280DD06F2806D1ACE073282CD066
:10174000752874D0782853D05246179990476D1C4D
:1017500054E1C4F30250022809D003280DD0D8F870
:10176000001004280DD00D6008F1040846E1D8F8F7
:101770000010EA17C1E90052F6E7D8F800100D8012
:10178000F2E70D70F0E718F8041B8DF80010002048
:101790008DF80100EB46012003E058F804BB4FF040
:1017A000FF3061074FF0000102D40DE009F10101A3
:1017B0008946B9420FDA8145F8DB1BF80910002988
:1017C000F4D108E009F1010189468142FADB1BF8F6
:1017D00009100029F6D103985346A0EB09072146CA
:1017E0003846179A00F080FA284400EB090507E014
:1017F00044E008E10DE01BF8010B524617999047B1
:10180000B9F10109F7D2534621463846179AF2E05A
:1018100039E00A21C4F302524FF0000B0091022A72
:1018200006D058F8040BC117032A09D00AE023E0B8
:1018300008F1070020F00702F2E80201904605E0F7
:1018400000B2C117042A01D140B2C117002906DA3B
:101850000A460021404261EB02012D2202E02205EE
:1018600004D52B228DF80420012203E0E20701D0E9
:101870002022F7E7914657E00A2100E010214FF0BF
:10188000000B00910BE010214FF0000B44F004041A
:101890000827009103E008204FF0000B0090C4F3EC
:1018A0000252022A05D058F8040B0021032A08D05E
:1018B00008E008F1070020F00702F2E80201904674
:1018C00003E080B2042A00D1C0B24FF00009220721
:1018D0002AD53278702A07D0DDF800C08CF0100CC1
:1018E0005CEA0B0C05D00EE040228DF804200122AA
:1018F00008E050EA010306D030238DF804308DF85B
:10190000052002229146009B83F0080353EA0B0353
:101910000AD150EA010201D1620705D530228DF8C3
:1019200004204FF001097F1E3278582A04D039A2D2
:101930000C920CAA02920BE03BA2F9E75B46009ADC
:10194000FEF72EFE0C9B9B5C029A521E02921370B5
:1019500050EA0102F2D1029804A9081A00F1200B02
:10196000600702D524F4803400E001275F4502DDE2
:10197000A7EB0B0000E0002000EB0B0100900398A8
:101980004944401A0390E00306D453462146179A6F
:10199000039800F0A9F90544002706E001A8524683
:1019A000C05D179990476D1C7F1C4F45F6DBE00327
:1019B0000CD553462146179A039800F095F9054433
:1019C00004E030205246179990476D1C0099481E3C
:1019D00000900029F5DC08E0029802995246007850
:1019E000491C0291179990476D1CBBF10001ABF1A6
:1019F000010BF1DC5BE100F065F90544761C307801
:101A000000287FF40DAE19B02846BDE8F08F000025
:101A100009280100303132333435363738396162C4
:101A20006364656600000000303132333435363788
:101A3000383941424344454600000000600700D465
:101A4000062708F1070020F00700F0E8022380468F
:101A500003F0004C5FEA0C0001D097A009E02005DC
:101A600001D596A005E0E00701D095A001E0AFF216
:101A70004C001390307823F0004365280CD006DC2E
:101A8000452809D046281DD047287FD13BE066284D
:101A900018D067287AD136E00021112F01DB112000
:101AA00000E0781CCDE9000104A90CA8FFF7EEFCCA
:101AB000DDE90D010C9A4FF0000B07F101091092BE
:101AC00000914EE04FF000400097CDE9011004A9CD
:101AD0000CA8FFF7DBFCDDE90D020C9B0F994FF022
:101AE000000B91461093009211B9791C00EB01098B
:101AF000B7EB090003D4C0F1FF3B07F10109A9EBE3
:101B00000700019042E0012F00DA01270021112F88
:101B100001DD112000E03846CDE9000104A90CA840
:101B2000FFF7B4FCDDE90D010C9A00914FF0000BBA
:101B3000B946109221070FD4009A4A4503DA91461C
:101B400001E0A9F10109B9F1010F05DD109AA9F130
:101B50000101515C3029F4D0B84202DA10F1040FCF
:101B600003DA0121CDE9011010E0002803DC8344F1
:101B7000A9EB000102E0411C494500DD8946A0EBCC
:101B80000B00401C01904FF000400290200705D44C
:101B90000198484502DB4FF0FF30019000208DF89E
:101BA0004B0002980DF14B07B0F1004F25D00220F9
:101BB0000C902B200D90029800280CDA40420290E5
:101BC0002D200D9007E00A210298FEF7D3FC30315A
:101BD000029007F8011D0C99481E0C900029F2DCB8
:101BE00002980028EFD1791E0D980870307800F027
:101BF000200040F0450007F8020D11A8C01BC01DD1
:101C000002901398007800B1012000EB09010198BF
:101C100001EBE071029801440398401A401E0390C2
:101C2000E00306D453462146179A039800F05CF867
:101C300005441398007818B15246179990476D1CC7
:101C4000E00323D553462146179A039800F04CF839
:101C500005441BE0BBF1000F07DB0098584504DD8D
:101C60001098179910F80B0001E017993020524690
:101C7000904701980BF1010B401E05F10105019001
:101C800004D12E205246179990476D1CB9F10001DE
:101C9000A9F10109DEDC05E017F8010B524617999E
:101CA00090476D1C0299481E02900029F4DC5346AF
:101CB0002146179A03989EE62D0000002B00000095
:101CC000200000002DE9F041044600251E4617467D
:101CD000880404D405E039462020B0476D1C641EFA
:101CE000F9D52846BDE8F0812DE9F04104460025EC
:101CF0001E469046C80301D5302700E020278804FF
:101D000004D505E041463846B0476D1C641EF9D540
:101D10002846BDE8F081000010B52DED088B9FED41
:101D2000390BB0EE408AF0EE608A00242CE037498F
:101D300031F81400FEF7E0FB41EC190B9FED340B7A
:101D400053EC102BFEF7E6FB1DD2304931F814009E
:101D5000FEF7D2FB41EC1B0B9FED2D0B53EC102B30
:101D6000FEF75BFB41EC190B53EC192B51EC190BF3
:101D7000FEF7E1FA41EC1B0B53EC182BFEF734FA9B
:101D800041EC180B00BF641C234800688442CED38A
:101D900021480068FEF7B0FB41EC1B0B53EC1B2BFA
:101DA00051EC180BFEF739FB41EC190BB0EE490A68
:101DB000F0EE690AFFF764FAB0EE40AAF0EE60AA0E
:101DC0009FED160B53EC102B51EC1A0BFEF725FB75
:101DD00041EC1B0BB0EE4B0AF0EE6B0AFFF7B8F9C3
:101DE000B0EE409AF0EE609A9FED0E0B53EC102B84
:101DF00051EC190BFEF79FFA41EC100BBDEC088B70
:101E000010BD000000000000000000009C10002039
:101E1000000000000000E04004000020F168E388BA
:101E2000B5F8F43E000000000000344070B50646EE
:101E30001048007808B901F08DF80024002500F062
:101E400063F80546AC19AC4200D170BDAC4205D96F
:101E500000BF00F059F8A042FBD309E000BF00F03A
:101E600053F8A842FBD200BF00F04EF8A042FBD3CB
:101E700000BFEAE71800002010B540F6054000F06A
:101E80006DFE102300220121064800F090F8102377
:101E900002220021034800F0B1F810200149283146
:101EA000086010BD0014024010B500F0E7F800F023
:101EB000C7F8FEF70FFE28210846FEF7E6FD3C2096
:101EC000FEF7B6FE10BD10B501210020FEF7A2FD01
:101ED000002201210846FEF732FE00210846FEF7E7
:101EE0008AFE2E20FEF779FE00210220FEF7E4FD97
:101EF00000F0C8F910BD30B504460D46E1B200202F
:101F000000F01AFC204630BD2DE9F0410C48007865
:101F100008B901F01FF800BF0A4804684FF0E0203C
:101F20008569084800688442F6D10748471BC820E5
:101F3000784340F6B831B0FBF1F63019BDE8F081D6
:101F40001800002014000020E0707200F0B5034675
:101F50001C6A5D6A00200DE00126864016403EB1F5
:101F600087000F26BE40B443860001FA06F63443CC
:101F7000461CB0B20828EFD3082011E001268640A5
:101F800016405EB1A0F10806B7000F26BE40B5436B
:101F9000A0F10806B60001FA06F63543461CB0B2B9
:101FA0001028EBD31C625D62F0BD81627047F0B512
:101FB00004460D4616462168E268002019E0012714
:101FC00087401F409FB14FEA400C032707FA0CF7E8
:101FD000B943470005FA07F739434FEA400C032796
:101FE00007FA0CF7BA43470006FA07F73A43471CCB
:101FF000B8B21028E3D32160E260F0BDF0B50C4622
:102000001546012C03D146681E43466002E046682F
:102010009E434660826800210DE001268E401E40EE
:102020003EB14F000326BE40B2434E0005FA06F60D
:1020300032434E1CB1B21029EFD38260F0BD0000D4
:1020400010B541F2170000F089FD002209490A4845
:1020500000F052F8A02300221146074800F0F9F8DA
:10206000054800F0C4F84FF48061034800F03CF8E4
:1020700010BD0000A0860100005C004010B54FF4C8
:10208000406000F06BFD40F6024000F067FD4FF449
:10209000807204211248FFF759FF4FF400720421A7
:1020A0001048FFF753FF4FF48073012202210C48C0
:1020B000FFF77DFF4FF48073022201210848FFF7EC
:1020C0009DFF4FF40073012202210648FFF76FFFC6
:1020D0004FF40073022201210248FFF78FFF10BD69
:1020E00000000240000802400A460021016821F475
:1020F00080611143016070472DE9F05F04460E4690
:102100009346022000F0BAFB07463148B7FBF0F9CE
:10211000B9F13C0F01D34FF03C09D4F804A02AF0E8
:102120003F0A4AEA090AC4F804A02A4886421ED88F
:102130002748B7FBF0F000F10108B8F13C0F02D3DB
:102140003C20206207E0B8F1020F02D80220206292
:1021500001E0C4F820807000B7FBF0F5042D00D238
:102160000425E069C5F30B010843E0612EE01A483D
:1021700086422BD84FF4967009FB00F04FF47A7129
:10218000B0FBF1F0401C2062BBF1000F08D106EB60
:102190004600B7FBF0F5E06920F48040E06109E01B
:1021A00006EBC60000EB0610B7FBF0F5E06940F463
:1021B0008040E061C5F30B0008B945F00105E06916
:1021C00040F40040E061E0692843E061BDE8F09F31
:1021D00040420F00A0860100801A0600CAB20261C8
:1021E0007047002100E0491C8142FCD37047016820
:1021F00041F001010160704710B540F20152914277
:1022000002D1426982690AE000EB9112126801F082
:102210001F040123A3409A4300EB91131A6010BDE1
:1022200010B5024602EB9110006801F01F04012373
:10223000A340184008B1012010BD0020FCE712F1B6
:10224000020F02D121F0010101E041F00101016121
:10225000704730B50C460021016821F0020121438E
:102260000160C3F3090342EA0305856030BD0168DC
:1022700041F4807101607047016841F400710160B0
:102280007047000008B54FF4406000F067FC40F66E
:10229000014000F063FC40F6024000F05FFC41F2B8
:1022A0000F0000F05BFC4FF4845206213848FFF722
:1022B0004DFE102207213748FFF748FE082206216D
:1022C0003448FFF743FE102206213348FFF73EFE55
:1022D0004FF48453002202212D48FFF768FE182393
:1022E000002202212B48FFF762FE10230022022168
:1022F0002948FFF75CFE4FF4845302220021244852
:10230000FFF77CFE0823022200212248FFF776FE19
:102310001023022200212048FFF770FE1F4800F022
:10232000BBFC4FF4007300224FF47A611B4800F0AD
:1023300063F800231A464FF40071184800F04DF876
:102340000020034602464FF4807100904FF0402079
:1023500000F02BF84FF410604FF04021C8610F4897
:1023600000F01EF84FF0402000F01AF84FF0402027
:10237000C06940F4C0604FF04021C86100210748A7
:1023800000F0F8FC01214FF0402000F0F3FC08BD04
:10239000000802400004024000000240003C0040EF
:1023A000C16941F48061C1617047F0B50446059D83
:1023B00000200026E06900F49060B1F5007F00D0B5
:1023C00011B94FF4807600E0002640F400603043FD
:1023D000104318432843E061F0BD30B504460020A7
:1023E000E0694FF24705284040F40060084310437D
:1023F0001843E06130BD00002DE9FE4F04460E4653
:10240000174698464FF002094FF0000A00BF4FF000
:10241000000B00200290019000900220206210200A
:1024200000F0DCFA102000F0EBFA1A2000F0D6FAE7
:102430001A2000F0E5FA002000F0C4FA34480068E1
:1024400000F03F000290324880300068C0F38810EE
:1024500001902F4880300068C0F3027000902C4833
:10246000006800F48000B0F5800F09D12949029876
:10247000B1FBF0F0019948430099B0FBF1FB08E093
:1024800025490298B1FBF0F0019948430099B0FB4F
:10249000F1FBB8F5007F07D14FEA1B2000EB80006D
:1024A0004000B0FBF6F50FE03FB94FEA5B1000EBE0
:1024B00080004000B0FBF6F506E04FEA9B1000EB11
:1024C00080004000B0FBF6F5681D0A21B0FBF1F575
:1024D00005F0010AA5EB0A004FEA50094FEA0A2A63
:1024E000B9F1020F02D3B9F1FF0F03D94FF002097E
:1024F0004FF0000A49EA0A0040EA08002062E06959
:1025000020F00700E061E0693843E061BDE8FE8F3C
:102510000438024040787D010024F40010B540F6F4
:10252000054000F01BFB40F6024000F017FB4FF4A3
:102530008063002201211148FFF739FD102300229A
:1025400001210F48FFF733FD1023022200210C4820
:10255000FFF754FD4FF48063022200210748FFF784
:102560004DFD40F6024000F0F9FA4FF400630022FE
:1025700011460248FFF71BFD10BD00000008024095
:102580000014024010B541EC100BFEF7FDFB51ECBE
:10259000100B10BDFFF7C2FF00240DE04FF4806068
:1025A0002449086000F0FDFC4FF48060214910319F
:1025B000086000F0F0FC641CB4F5347FEEDB002012
:1025C00005E06FF07F411C4A42F82010401C1E2895
:1025D000F7DB1AA0FEF7C6FB4FF4407000F0A2F83C
:1025E000FFF74AFCFFF760FC22E01848007890B93A
:1025F0000120164908700020154908701549086027
:10260000FFF761FC00221146332000F029F810206A
:10261000114908600CE00E48007848B100200C49D0
:10262000087001200D49087010200B49103908600E
:10263000DBE70000180802401C1D002048656C6C98
:102640006F20576F726C64210A0A00000900002095
:102650000A00002004000020281402400800002086
:102660002DE9F04103460D46164600240027A046FA
:102670002A48006800F4E060B0F5E06F03D100BFC5
:102680004FF0040830E02548006800F4E060B0F541
:10269000C06F03D101274FF0030825E01F480068F1
:1026A00000F4E060B0F5A06F02D10227B8461BE04D
:1026B0001A48006800F4E060B0F5806F03D103278A
:1026C0004FF0010810E01548006800F4E060B0F534
:1026D000407F03D104274FF0000805E04FF4A060CD
:1026E00000F020F80227B846C7F1040005FA00F40C
:1026F000C8F104010F20C8403040044324010848B9
:10270000C45403F01F01012088405911890001F1D0
:10271000E021C1F80001BDE8F08100000CED00E00F
:1027200000E400E002490143024A116070470000E2
:102730000000FA050CED00E010B500B90A484FF4AE
:1027400080521258B2F5805F03D300234FF48052B9
:1027500013504FF4805214581258521C4FF48053A7
:102760001A50015510BD00009800002010B52DED45
:10277000028BFFF7D1FAB0EE408AF0EE608A53EC9C
:10278000182B33A0FEF7EEFA1D2006E0411E324A58
:1027900052F8211042F82010401E0028F6DC9FED70
:1027A0002F0B53EC102B51EC180BFDF7CBFE0DD873
:1027B0009FED2C0B53EC102B51EC180BFDF7AAFEE0
:1027C00004D24FF47F402449086030E09FED250B90
:1027D00053EC102B51EC180BFDF7B4FE0CD89FED09
:1027E000230B53EC102B51EC180BFDF793FE03D287
:1027F000FF20194908601AE09FED1C0B53EC102BC9
:1028000051EC180BFDF79EFE0DD89FED1A0B53EC03
:10281000102B51EC180BFDF77DFE04D24FF47F0016
:102820000D49086003E06FF07F400B4908600A49DA
:102830000968094A5268881800EBD0714910064AA5
:1028400011601E21104600F0CBF9BDEC028B10BDCB
:10285000256C662064420A001C1D00200000000058
:1028600000804B40000000000000504000000000CD
:1028700000C050400000000000C052402DE9F04F61
:102880008CB0064600200A903EA090E8004CC0683C
:10289000CDE905BECDF810A007900FF2EC0ADAE9F9
:1028A000000ACDE9020A0FF2E00ADAE9000ACDE9EE
:1028B000000A38480068C0F381000B900B9820B1E3
:1028C000012804D0022828D103E0334927E0334906
:1028D00025E03048001F006800F03F072D48001F2A
:1028E0000068C0F3881C2B48001F0068C0F301403B
:1028F000401C4FEA40092748001F006800F4800888
:10290000B8F5800F01D1254B00E0234BB3FBF7F066
:1029100000FB0CF0B0FBF9F101E01F4900BF00BF64
:102920001C480068C0F3031404A8055D21FA05F2F1
:1029300018480068C0F3822402A8055D22FA05F059
:10294000099014480068C0F342341DF8045022FA7C
:1029500005F0089036B1012E06D0022E06D0032EC7
:102960000AD106E00A9108E00A9206E009980A9066
:1029700003E008980A9000E000BF00BF0A980CB07E
:10298000BDE8F08F00000000000000000102030419
:1029900006070809083802400024F40040787D0149
:1029A0000146074A02EB9110D0F8000801F01F031E
:1029B00001229A40104008B1012070470020FCE736
:1029C00000300240044A116821F4000141EA00028B
:1029D000014B1A607047000008380240074A02EBBA
:1029E0009011D1F8001800F01F0301229A40114302
:1029F000024B03EB9012C2F80018704700300240FF
:102A0000F0B506460024002700251C2E7DD007DCEB
:102A1000B6B3102E10D0182E67D01A2E76D176E0CD
:102A2000B6F5E05F19D0B6F5E85F4CD0A6F540509A
:102A300010380028F2D134E004E01120FFF7B0FF95
:102A40000546641C1DB94FF6FF708442F5D1112074
:102A5000FFF7A6FF00B101277AE005E041F601404B
:102A6000FFF79EFF0546641C1DB96FF0704084425D
:102A7000F4D141F60140FFF793FF00B1012767E071
:102A8000FFE704E00120FFF78BFF0546641C15B942
:102A9000B4F5A06FF6D10120FFF782FF00B1012746
:102AA00056E005E043F21100FFF77AFF0546641C8B
:102AB00015B929488442F5D143F21100FFF770FFA0
:102AC00000B1012744E005E041F60150FFF768FF3F
:102AD0000546641C15B920488442F5D141F60150E1
:102AE000FFF75EFF00B1012732E004E01920FFF795
:102AF00057FF0546641C15B917488442F6D11920C2
:102B0000FFF74EFF00B1012722E010E01FE004E0D4
:102B10001B20FFF745FF0546641C15B90E4884428B
:102B2000F6D11B20FFF73CFF00B1012710E004E0C5
:102B30001D20FFF735FF0546641C15B90648844281
:102B4000F6D11D20FFF72CFF00B1012700E000BFE8
:102B500000BF3846F0BD0000FFFF0F00074A02EB40
:102B60009011D1F8001800F01F0301229A40114380
:102B7000024B03EB9012C2F800187047003002407D
:102B8000074A02EB9011D1F8001800F01F03012250
:102B90009A409143024B03EB9012C2F80018704721
:102BA00000300240074A02EB9011D1F8001800F003
:102BB0001F0301229A401143024B03EB9012C2F80B
:102BC000001870470030024070B504460D46294693
:102BD0002046FFF7EAF93220FFF728F970BD000020
:102BE00070B504460D462B4622464FF480610248DC
:102BF00000F004F870BD0000000802402DE9F04725
:102C00008046894615461E46002407E055F8247084
:102C10003A464946404600F009F8641CB442F5D3F0
:102C200049464046FFF7D0FFBDE8F0872DE9F04167
:102C300006460F4614460520FFF7F8F800251FE06A
:102C400004F4000068B14FF480600F49086000F0A0
:102C5000A8F94FF480600C491031086000F09BF92E
:102C60000CE04FF480600849086000F094F94FF4DC
:102C7000806005491031086000F093F964006D1C14
:102C8000182DDDD3BDE8F081180802400146C86860
:102C900080B27047C160704710B504462749601A7A
:102CA0008C422CD009DC26482044B0B1B0F5806FAE
:102CB0001CD0B0F5784F3DD106E0B0F5E05F27D0ED
:102CC000B0F5005F36D12CE040F60C10FFF76AFF3C
:102CD00040F60C10FFF754FF2DE040F60E00FFF712
:102CE00061FF40F60E00FFF74BFF24E040F60F00B7
:102CF000FFF758FF40F60F00FFF742FF1BE040F6DA
:102D00000D10FFF74FFF40F60D10FFF739FF12E0EF
:102D100040F61410FFF746FF40F61410FFF730FF9F
:102D200009E040F61510FFF73DFF40F61510FFF7DC
:102D300027FF00E000BF00BF10BD000000340140CD
:102D400000C8FFBF21B1012907D002290FD109E036
:102D5000426822F0800242600AE0426822F04002AB
:102D6000426005E0426822F02002426000E000BFBD
:102D700000BF704721B1012907D002290FD109E016
:102D8000426842F0800242600AE0426842F040023B
:102D9000426005E0426842F02002426000E000BF6D
:102DA00000BF704710B503460C4699685A68072C57
:102DB00028D2DFE804F004090E13181D220001F0E8
:102DC000020102F080021EE001F0010102F0400267
:102DD00019E001F0400102F0200214E001F02001AE
:102DE00002F020020FE001F0100102F020020AE0E0
:102DF00001F0080102F0200205E001F4807102F008
:102E0000200200E000BF00BF11B10AB1012010BDD7
:102E10000020FCE7002000213A4A126842F001023B
:102E2000384B1A6000BF401C364A126802F002019B
:102E300011B9B0F5A06FF6D1324A126802F0020261
:102E40000AB900BFFEE72F4A4032126842F08052B2
:102E50002C4B40331A602C4A126842F440422A4BF1
:102E60001A60284A08321268264B08331A601A463C
:102E7000126842F400421A601A46126842F4A052E4
:102E80001A60224A1B1F1A601A1F126842F08072D1
:102E90001B1F1A6000BF1B4A126802F00072002A52
:102EA000F9D0194A126842F48032174B1A6000BFF9
:102EB000154A526802F48032002AF9D0124A126888
:102EC00042F40032104B1A6000BF0F4A526802F4FD
:102ED0000032002AF9D00B4A0832126822F00302AD
:102EE000084B08331A601A46126842F002021A6050
:102EF00000BF044A0832126802F00802002AF8D023
:102F00007047000000380240007000401078000A4E
:102F100010B5FFF77FFF10BD094800680949084454
:102F200007490860084800680849084406490860DD
:102F30000748006800F5FA7005490860704700000E
:102F40000C000020404B4C001400002020A1070082
:102F50001000002072B601200549087005484FF0A6
:102F6000E021486188610320086162B67047000073
:102F700018000020E0707200CA43026170470246E8
:102F8000D06800EA01031069084010B10BB10120BC
:102F900070470020FCE7142000E0401E0028FCD110
:102FA0007047302000E0401E0028FCD17047000030
:102FB00004FA97999999D93FAF788E1DC571CC3F86
:102FC0009FC678D0099AC33F935555555555E53F4F
:102FD000599322942449D23FDE03CB966446C73FDF
:102FE00044523EDF12F1C23F00000000000000002A
:102FF0001030000800000020980000006014000855
:10300000A83000089800002000210000701400087B
:1030100000000000000000000000000000000000B0
:1030200000000000000000000000000000000000A0
:1030300000005000000040010000000000000000FF
:10304000FF00FF0000000001FF00FF0000002C0156
:103050002C002C002C002C0000003200000000008E
:103060000000000000000000000038000B003200EB
:10307000000008000C009300E900000000000000C0
:103080000000030010001000000100010200010018
:103090000100390039003900390001000100000049
:0830A000000000000000000028
:04000005080001AD41
:00000001FF
